:020000040800F2
:10000000C8A3002095300108792801087B28010841
:100010007D2801087F2801088128010800000000D0
:100020000000000000000000000000001D33000878
:100030008328010800000000C13200082B300008AE
:100040005B3101085F310108633101086731010844
:100050006B3101086F3101087331010877310108F4
:100060007B3101087F3101088331010887310108A4
:100070008B3101088F310108933101089731010854
:100080009B3101089F310108A3310108A731010804
:10009000AB310108AF310108B3310108B7310108B4
:1000A000BB310108BF310108C3310108C731010864
:1000B000CB310108CF310108D3310108D731010814
:1000C000DB310108DF310108E3310108E7310108C4
:1000D000EB310108EF310108F3310108F731010874
:1000E000FB310108FF310108033201080732010822
:1000F0000B3201080F3201081332010817320108D0
:100100001B320108852801081F320108233201082B
:10011000273201082B3201088B2801082F320108F1
:1001200033320108373201083B32010891280108B7
:100130003F32010843320108473201084B320108BF
:100140004F32010853320108573201085B3201086F
:100150005F320108972801086332010867320108FD
:100160006B3201086F3201087332010877320108DF
:100170007B3201087F320108833201080000000051
:10018000873201088B3201088F320108933201084F
:10019000973201089B3201089F320108A3320108FF
:1001A0009D280108A7320108A3280108AB320108E5
:1001B000AF320108B3320108B7320108BB3201087F
:1001C000BF320108C33201084178007807E0827825
:1001D000C17842EA01224178007841EA022140EAEE
:1001E000012070470170090A417070470170090AC7
:1001F0004170090A8170090AC17070472AB111F86B
:10020000013B521E00F8013BF9D17047521E00F825
:10021000011BFBD17047002800D1704780B5C06832
:1002200001F01FFC00B1012002BD00281CBF0C29F9
:100230000B2904D00F291CBFC06801F01CBC7047FB
:10024000F0B5024600230024DFF84C5A1768D2F8B4
:1002500008C005EB0416306870B1B84204BF70687E
:10026000604502BFB6685069864206D1022C0AD1A9
:1002700093B9022905D10FE00123641C022CE8D3B5
:10028000F4E71220F0BD29B905EB04108289B2F51C
:10029000807F01D11020F0BD0020F0BDF0B500221C
:1002A0000568DFF8F4691301F458AC4201BF371D4B
:1002B000FC588768BC4205D106F108044769E35839
:1002C000BB4202D0521C012AEDD9022A12D1346855
:1002D0000022002C1EBF01223369002B0FD1130115
:1002E000F418256085686560406906F10807F850D4
:1002F0000023A38106EB0213988929B108B10020DD
:10030000F0BD4FF4807000E0401C9881501CF0BD9F
:10031000401E022810B514D20001DFF87C190A181B
:100320009389B3F5807F01D01C0002D10023938113
:1003300003E05B1E93819BB20BB900220A500020A0
:1003400010BD022010BD30B50021DFF84C2900257A
:100350000B01D458844208BFD550491C0129F7D954
:1003600030BDF8B505460024E878F0B12E6B68780A
:10037000012305F13401324601F0A4FB08B1012448
:1003800013E0696AEA69E870711A91420DD2AF7898
:1003900009E0E869012305F134017F1E86196878B8
:1003A000324601F08FFB012FF3D82046F2BD70B525
:1003B00004460D46206B0026854210D02046FFF7EC
:1003C000D0FF06000BD1607801232A4604F13401E6
:1003D00001F072FB10B14FF0FF3501262563304666
:1003E00070BD38B50446FFF7BCFF050039D1207851
:1003F000032804BF217901292CD101F0DEFA04F190
:100400003400FFF703FF4AF6552104F23220FFF7CC
:10041000E9FEDFF8981B04F13400FFF7E7FEDFF890
:10042000901B04F50670FFF7E1FE616904F50770A3
:10043000FFF7DCFE216904F50870FFF7D7FE226A9A
:100440006078012304F13401521C226301F03AFB6D
:100450000020207160780022002101F041FB00B1F2
:100460000125284632BD8269891E921E914201D320
:10047000002070474289C06A02FB010108467047AC
:100480002DE9F0410C46022C05684CD3A869844242
:1004900049D22A784FF0FF36012A04D043D3032AE9
:1004A00030D01FD33FE0696A04EB540700F0BAF87C
:1004B000002839D1696A00F0AFF801EB572112F832
:1004C00000802846FFF773FF70BB05F13400C7F3C7
:1004D0000807C15DE20748EA012654BFC6F30B06D0
:1004E000360921E0696A284601EB1421FFF75FFF16
:1004F000D0B905F13400240600EBD450FFF764FEB8
:10050000064611E0696A284601EBD411FFF74FFF58
:1005100050B905F13400640600EBD450FFF757FEE4
:1005200020F0704600E001263046BDE8F0812DE95C
:10053000F0410E46022E054614464FF0020868D3DD
:10054000A869864265D22A78012A04D061D3032A99
:1005500043D02ED35DE0696A06EB560700F062F8DF
:100560005FEA000855D100F057F81044F10743BF87
:10057000017801F00F0141EA0411214601700120C8
:10058000696AE87000F04EF85FEA000841D105F1B1
:100590003400C7F30807C019F10748BF240906D47F
:1005A0000278240A04F00F0402F0F00214430470ED
:1005B0002DE0696A284601EB1621FFF7F8FE5FEA95
:1005C000000826D105F13400360600EBD650A1B262
:1005D000FFF708FE0121E9701BE0696A284601EB7C
:1005E000D611FFF7E4FE5FEA000812D105F13400EE
:1005F000760600EBD65624F070443046FFF7E7FD50
:1006000000F0704040EA04013046FFF7EFFD0120A2
:10061000E8704046BDE8F08105F13402C7F30800F8
:100620007F1C7047284601EB5721C0E6F8B5054608
:100630000F46012F11462E6829D9B3699F4226D251
:1006400029B14FF0FF3200F078F801001ED1394691
:100650002846FFF715FF040017D0012C17D014F11E
:10066000010F16D0002200F067F801000ED1B0692A
:100670007169821E914205D2491C7161317941F044
:100680000101317127468742E1D30020F2BD0220EB
:10069000F2BD0120F2BD2DE9F0410C008046D8F8F2
:1006A000006006D1356915B1B06985420ED30125C8
:1006B0000CE0FFF7E5FE012898BF01203AD910F1C0
:1006C000010F37D0B169884234D325462F46B0692F
:1006D0007F1C874202D30227012D0BD939464046A1
:1006E000FFF7CEFE40B1012818BF10F1010F21D055
:1006F000AF42ECD100201DE04FF0FF3200F01CF8BB
:1007000090B924B13A46214600F017F860B9376134
:10071000B1697069891E814224BF401E70613079C1
:1007200040F00100307104E001280CBF4FF0FF37AA
:1007300001273846BDE8F08139463046F7E6C26AFF
:100740000068490A4389121DB1FBF3F003E08842B7
:1007500006D3401A083211680029F8D100207047EA
:100760005168081870472DE9F0410E460546B6F568
:10077000001F2F683AD216F01F0F37D1AC686E6198
:1007800054B93878032801DBBC6A2CB9398970095F
:1007900088422BD2B86A24E0B7F80A8006E0022C1F
:1007A00024D3B869844221D2A6EB4826B6EB482F61
:1007B000214614D32846FFF763FE044614F1010FC7
:1007C000EDD1012009E000EB5620C6F30806E861F0
:1007D000B81900F1340100202962BDE8F08100F071
:1007E00077F8E861E869AC610028ECD10220F4E711
:1007F0002DE9F04106460C467569F06937682035E9
:1008000010B3B5F5001F1FD2E90556D1B169401CE0
:10081000F06121B93989680988424ED312E078899C
:10082000401E10EA552F48D13046FFF729FE80467A
:10083000B8F1010F16D918F1010F34D0B86980450D
:1008400036D31CB90021F16104203EE0B169304685
:10085000FFF721FF5FEA000808BF072035D0B8F195
:10086000010F01D1022030E018F1010F1BD03846F2
:10087000FFF777FDB8B901F0A0F807F134000024C4
:10088000FFF7C4FC00F023F802E0386B641C401C46
:10089000798938638C4208D20120F8703846FFF716
:1008A00060FD0028F1D001200FE0386B041B3C6391
:1008B000C6F8188000F00BF8F061756107F134009C
:1008C000C5F30805411931620020BDE8F0814146B9
:1008D0003846C8E570B504460D4605F11A00FFF725
:1008E00073FC21780646032905D105F11400FFF7B2
:1008F0006BFC46EA0046304670BD70B504460D46B6
:100900001646B1B205F11A00FFF76CFC21780329F5
:1009100005D1310C05F11400BDE8704062E470BDF2
:1009200070B504460D4604222668E169F1B13046EF
:10093000FFF73DFD020019D1216A0878E0B1C97ABC
:10094000E52801F03F01A1711CBF2E280F2907D017
:1009500021F02001082914BF00200120A84209D05D
:1009600000212046FFF744FF0200DED0100001D036
:100970000020E061104670BD0422F9E7F8B5054695
:1009800000212C68FFF7EFFE070016D10026E96969
:100990002046FFF70CFD07000FD1286A0078E528F4
:1009A0001CBF0028002602D1761C012E08D0012190
:1009B0002846FFF71DFF0700E9D0042F08BF0727CF
:1009C000380012D1E9692046FFF7F1FC07000CD18D
:1009D000286A20220021FFF719FC286A0B2205F162
:1009E0002401FFF70BFC0120E0703846F2BDF8B59A
:1009F0000C46002105466172E86950B300202E23A1
:100A000004F1090604F109072A6A525C491C202AEC
:100A100008D0052A08BFE522092904BF3354401C29
:100A20003A54401C0B29EFD3002104F10902115460
:100A3000286AC37A2372296A01F11C00FFF7C7FBF9
:100A400020602A6A02F11600FFF7C1FBE080000C6B
:100A5000A080F1BD2DE9F0420C4600F12406256886
:100A60000B2220213046FFF7D1FB0021002308276D
:100A70000FF2900CDFF83CE703E00B2F35D0082194
:100A80000B27EA5C5B1C202A2BDD2F2A18BF5C2A6F
:100A900006D1E85C2F2814BF5C285B1CF9D020E04D
:100AA0002E2AEAD0B94220D2802AE146A4BF0EEB1A
:100AB000020010F8802C99F80000C0B1904218BFD5
:100AC00009F10109F7D112E03078E52804BF0521CA
:100AD0003170202AD4BF04200020F0720020BDE82D
:100AE000F082E81800292060EED10620F7E7002800
:100AF000FBD1A2F161001A2838BF203A7254491C78
:100B0000BFE70000222A2B2C3A3B3C3D3E3F5B5D79
:100B10007C7F0000F2B50446256801E0511C00917D
:100B2000009A10782F2818BF5C28F7D00020A0600A
:100B300000990A78202A17D28023002184F82F30C8
:100B40002046FFF710FE02464BE0430749D4A07948
:100B5000C10645D56269C2F30802A81800F1340144
:100B60002846FFF7B7FEA06069462046FFF772FFF0
:100B7000020036D1266800212046FFF7F4FD02006E
:100B800023D1E1693046FFF712FC02001DD1236A30
:100B9000187818B3D97A01F03F01A171D87A01070A
:100BA0000DD404F124070B2113F801CB17F8010B26
:100BB000491EACEB000001D00028F5D028B100217F
:100BC0002046FFF715FE0200DBD0110094F82F003D
:100BD000BBD0042A05D1400703D401E00422F4E786
:100BE00005221046F2BD03464FF0FF301A68002A76
:100BF00000D1704710B514462178212906D33A292F
:100C000018BF641CF8D101E0002010BD3A29FBD1C7
:100C100012F8011B30390A29F7D2A24208BF002975
:100C2000F3D1621C00201A6010BD10B504460022EA
:100C30004FF0FF33E2702363FFF7B9FB08B10420E4
:100C400010BD04F23220FFF7BFFA4AF65521884260
:100C500001D0032010BD04F134000178E92904D04B
:100C6000EB2904BF8078902813D104F16A00FFF7C4
:100C7000AEFA20F07F40DFF84015884207D004F13B
:100C80008600FFF7A4FADFF83425904201D1002056
:100C900010BD022010BD0000E09E00202DE9FF41A4
:100CA0000E46002114463160FFF79DFF070048BF44
:100CB0000B2007D4DFF8088508F1040050F827500E
:100CC0000DB90C2013E12846FFF7A5FA08B90F204B
:100CD0000DE13560287804F0FE0448B1687800F032
:100CE000CFFEC10704D4002C01D040070DD4FDE095
:100CF000002129706F70687800F0CBFEC10748BFF3
:100D0000032003D41CB1400701D50A20EFE00021E5
:100D100028460026FFF789FF02281ED1002405EB94
:100D2000041101F5F971087918B101F10800FFF714
:100D30004EFA4DF82400641C042CF0D35DF82640D4
:100D400024B121462846FFF770FF00E00320022867
:100D500002DB761C042EF1D32646042808BF0120AE
:100D6000D4D0022880F2828005F13F00FFF72CFAF0
:100D7000B0F5007F7AD105F14A00FFF725FA0400AB
:100D800004D105F15800FFF722FA0446EC6105F1A1
:100D90004100C1780129A97018BF022966D14C43CE
:100DA00000780100688161D0421E10425ED105F1D9
:100DB0004500FFF709FA10F00F0F288156D105F111
:100DC0004700FFF701FA070004D105F15400FFF7CF
:100DD000FEF9074605F14200FFF7F6F9002845D075
:100DE0002989231803EB11139F423FD3B5F80AC09A
:100DF000FF1AB7FBFCF2002A38D003274FF6F67E25
:100E0000724540F6F67C38BF0227624538BF01279D
:100E1000921C8019AA619B19032F2E626862EB62F3
:100E200010D105F15E00FFF7CFF9002804BF288933
:100E300000281BD105F16000FFF7C9F90446A86935
:100E400080000CE091B1686A2418A869022F0FBFD6
:100E5000400000EB400100F0010000EB5100E969A7
:100E600000F2FF10AC62B1EB502F01D20D203EE03A
:100E70004FF0FF30686128618020032F28712BD14B
:100E800005F16400FFF7A0F9012825D1711C28465F
:100E9000FFF78DFA00BB287105F23220FFF794F9B5
:100EA0004AF65521884217D105F13400FFF78FF932
:100EB0003E4A904210D105F50670FFF788F93C498B
:100EC000884209D105F50770FFF781F9686105F5DA
:100ED0000870FFF77CF928612F70B8F80000401CFB
:100EE000A8F80000E8802846FFF72DFA002004B09B
:100EF000BDE8F08138B504000D461CBF216800290B
:100F00000AD0087840B1CA88A3889A4204D14878A8
:100F100000F0B6FDC10703D500202860092032BDCE
:100F200022682A602068FFF776F908B90F2032BDE1
:100F3000002032BDF3B581B0154600916846FFF739
:100F400052FE060001D50B20FEBD9D4800EB860732
:100F50007C6844B12046FFF7F6F9E06800F07CFDBC
:100F600078B100212170019810B90021796010E05A
:100F7000019A002010700199F0B20C3100F05EFD72
:100F800008B90220FEBD01997960019808B1012DD0
:100F900001D00020FEBD002201A902A8FFF77EFEBD
:100FA0000446019800F0C1F92046FEBD525261414D
:100FB000727241612DE9F24104008DB008BF092031
:100FC00000F0F58002F03F073A4669460DA8FFF7AA
:100FD00065FE060068D100980D99019001A8FFF701
:100FE00099FD06000DD19DF83300010648BF062685
:100FF00007D417F0FE0101A818BF0121FFF720F95F
:10100000064617F01C0F00F0AB80300000F09E8009
:10101000042E49D16B48016800291EBF00690028D1
:10102000122603D101A8FFF7A9FC0646300047F0BD
:10103000080738D139073CD500F06CFD0546099802
:1010400029460E30FFF7D2F8099829461630FFF7E7
:10105000CDF809982021C172DDF82480009841461E
:10106000FFF738FC0546009800224146FFF745FC93
:10107000099800211C30FFF7B9F800980121C170D0
:101080009DB10099002201A8D1F830802946FFF7D0
:10109000CDFA060007D1009841466D1EFFF787F98B
:1010A00006460098056130007CD1380748BF47F0FC
:1010B00040070099086B60620999A16217F0FE0170
:1010C00001A818BF0121FFF7E9F8002820613BD0F3
:1010D000099D00982946FFF7FDFBA06005F11C0063
:1010E000FFF775F8E0600020E06200992160009A47
:1010F0000021D088277561754FF40072A08004F13B
:1011000030002162A161FFF781F8B8064CD5E5688F
:10111000002D49D0A5610098A16847897F02AF42A0
:101120000CD22046FFF7ACF90146022926D311F173
:10113000010F26D0ED1B3000F1D020E0E805E16181
:1011400032D000F0D0F908BB02262BE09DF80A004F
:1011500010F0110F10D179077FF56CAF082621E050
:101160003000A0D19DF80A00C10648BF042619D45A
:10117000BA079AD5C00798D5072613E00226E16181
:1011800010E04FF0FF300126E0610BE000EB55204E
:101190000123206204F130010246009800F0A8F912
:1011A00010B101260020206000F08DFB30460EB00B
:1011B000BDE8F081242001084641540046415433E3
:1011C0007C9F0020E09E00202DE9FC4715468A46C2
:1011D000994600220646C9F800206946FFF78AFEB4
:1011E000040002D1747D200003D000F09DF8204659
:1011F0008CE0307DC10703D400F06AF9072085E058
:10120000F068B469041BAC423ED92C463CE0F1695D
:101210003046FFF735F902287AD310F1010F7DD05F
:10122000F061F16900F05FF9010071D0670A05EB28
:1012300000083BD0009879194246408988425146BF
:1012400038BF471B009D3B46687800F035FC0028FE
:1012500064D1307D01060CD5326AA2EB0803BB4293
:1012600007D20AEB43204FF4007206F13001FEF77B
:10127000C5FF7F02B069BA44E41B3818B061D9F8E1
:1012800000107918C9F80010002C3CD0B169C805CD
:1012900028D100F021F9C4D109B9B068BBE7F06AE0
:1012A0000028B4D03046FFF74AFAB4E7326A424524
:1012B00016D0307D01060BD50098012306F13001D0
:1012C000407800F0FFFB48BB307D00F07F003075B8
:1012D00000980123424606F1300100F009F9E8B90F
:1012E000C6F82080B1692746C1F30801C1F5007036
:1012F000844288BF074606F1300001443A46504612
:10130000FEF77CFFB6E700F05AF90020BDE8F6874B
:101310000220022100F053FA0220F7E70120012108
:1013200000F04DFA0120F1E700982146FEF77DBF5D
:101330002DE9FC4714468946984600220746C8F81E
:1013400000206946FFF7D6FD050002D17D7D28000B
:1013500003D000F0BCFA2846AAE0387D810703D408
:1013600000F0B6F80720A3E0B869211881425DD2E9
:101370004FF0FF32141A59E0F9693846FFF78BF93C
:10138000002854D001281CD010F1010F00F09980E2
:10139000B968F86101B9B860387D01060DD50098CB
:1013A0003A6A012307F13001407800F08BFB0028F6
:1013B0001AD1387D00F07F003875F96900F093F894
:1013C000002877D0660A05EB000A43D0009871190F
:1013D000524640898842494638BF461B009D3346E5
:1013E000687800F06FFB00286BD1386AA0EB0A0028
:1013F000B0420BD209EB40214FF4007207F13000EC
:10140000FEF7FCFE387D00F07F0038757602F96843
:10141000B869B14430188842B86138BF0846F860EE
:10142000D8F80000A41B3018C8F80000002C37D0F2
:10143000B969C8051FD100F04FF8ADD119B9B86826
:1014400000289DD199E7F86A002895D03846FFF723
:1014500076F995E7386A50450BD0B969FA68914238
:1014600007D200980123524607F1300100F040F8FE
:1014700038BBC7F820A0BB6926464946C3F308031A
:10148000C3F50070844288BF064607F1300032463B
:101490001844FEF7B3FE397D41F080013975B6E797
:1014A000387D002140F04000387500F089F90020B7
:1014B000BDE8F68702200221787500F081F902204C
:1014C000F6E701200121787500F07AF90120EFE7B5
:1014D00000980721FEF7A9BE009A55896D1E15EAEE
:1014E0005125704701460098FEF7BDBF04F1300159
:1014F000407800F0E1BA7CB500F0B9F905003BD1C5
:10150000207D410638D500060AD500F039F828B10B
:1015100000980121FEF789FE012076BD00F04AF90E
:1015200000F0F8FA0646616A0098FEF740FF0500F1
:1015300022D1A56AE87A40F02000E872A26820680B
:101540002946FFF7DAF9E16805F11C00FEF74EFEC7
:10155000314605F11600FEF749FE002105F11200A3
:10156000FEF740FE00990120C87000F023FA0546FE
:10157000207D00F0BF00207500F0A9F9284676BD57
:101580000098226A012304F13001407800F09ABAF1
:1015900038B50446FFF7AFFF05000ED16946204677
:1015A000FFF7A8FC050008D12069FEF7B1FE050091
:1015B00004BF0020206000F002F8284632BD0098E9
:1015C0000021FEF732BE2DE9F84F0D4600F04FF92D
:1015D0005FEA000808BF94F815805FEA080032D17E
:1015E000E06A002860D015F1010F2DD10746A068F0
:1015F00057F8049B4FF0020AE0B1834600250AF138
:10160000020A0646014620466D1CFEF739FF0128F6
:1016100040F29B8010F1010F6ED0761CB042F0D0EA
:10162000D14503D33D60C7F804B0083700998A69F3
:101630009042E2D3E06AD145C0F800A032BF4FF03B
:10164000110800213960AEE0E668AE4288BF2E4640
:10165000002EA661F7D0761E31462046FFF76FF8C0
:10166000E061FFF73FFF05006FD00098A269418954
:10167000491E01EA56214D19D0051CBF226A954228
:1016800011D0207D010606D50098FFF77BFF0028CA
:1016900007D100F08FF8009801232A46FFF726FFB4
:1016A000002878D125627EE0E068A84203D2217D3F
:1016B0008A0758BF05460026A0690021002DA161B8
:1016C0004CD0009A57897F0268B1401E6B1EB0FB58
:1016D000F7F2B3FBF7F3934205D3791E8843A06179
:1016E0002D1AE0690BE0A06840B92046FEF7D3FF51
:1016F00001282AD010F1010F4DD0A060E06160B93F
:101700002CE0FEF7BDFE10F1010F44D001281CD9DA
:1017100000998A69904218D2E061AF420DD2A16966
:10172000227DED1B7918A161014693072046E8D57B
:10173000FEF7B1FF0028E6D10025A1696918EA0586
:10174000A1610BD0FFF7CEFE30B9022002216075F7
:1017500000F036F802202BE000EB5526A069E16886
:10176000814204D2227DE06042F040022275C00531
:101770001CBF226A964216D0207D010605D500982E
:10178000FFF700FF38B900F015F800980123324642
:10179000FFF7ACFE30B101200121607500F010F8B8
:1017A000012005E0266200984146FEF73EFD4046D6
:1017B000BDE8F28F207D00F07F00207570477075C6
:1017C0000098FEF732BD33B5040081B001D1092085
:1017D0003EBD0022694602A8FFF760FA05002DD140
:1017E0000098206002992046FFF794F9050021D166
:1017F00094F82F00010607D4A279D0061CD5216ADF
:101800000098FFF767F8A0600098C1882046A18083
:101810000021FEF7A8FF05000CD1A06810B9002137
:1018200021610FE000212046FEF738FD206148B914
:10183000122505E0042D01D1052501E0280001D085
:101840000020206000F043F828463EBD38B500F087
:101850000EF8050009D1206918B1FEF759FD050001
:1018600001D100202060FFF7AAFE284632BD0446C1
:101870006946FFF73FBB7CB50C4605466946FFF756
:1018800039FB06001BD12CB900212846FEF76BFF5F
:10189000064614E000212846FFF742F804280646D1
:1018A00001D030000BD121462846FFF7A0F80021D7
:1018B0002846FEF79DFF0646042808BF002600F0D4
:1018C00002F8304676BD00983146FEF7AEBC00986F
:1018D0002946FEF7AABC2DE9F14F86B00F46144603
:1018E0000022694606A8FFF7D9F9804660BB009838
:1018F000206000990A4694694869A11E814228BF68
:10190000386021D2104600260278012A27D102240D
:101910000190214601A8FEF7B3FD10F1010F09D097
:10192000012819D000B9761C0098641C81698C428A
:10193000EFD301E04FF001083E6000984661009946
:101940000A7942F001020A7100984146FEF76DFCE7
:10195000404607B0BDE8F08F4FF00208ECE7D0F842
:1019600024900AE0FEF733FC00010BF1040B08BFE2
:1019700056462D1F641EDFD06DB90098494609F107
:101980000109FEF714FD00288046D5D100994FF4D7
:10199000007501F1340B009806F1010A01785846F0
:1019A0000229DFD1FEF710FC00B956460BF1020BFD
:1019B000AD1EDFE70098FEF714BD4FF40072002162
:1019C0007047F0B40246106895681318506803EB2E
:1019D0005004C0071DD54D441BE013F8017B05F8EA
:1019E000017B491EF9D1A0B1B60813F8011B06F01E
:1019F0000306032E08BF13F8016B01EB06214942D1
:101A0000801C294405D011F8016B05F8016B401EBC
:101A1000F9D1A3420ED013F8016B16F0030104BFF5
:101A200013F8011BC91C30090F28DAD113F8010B78
:101A30000F30D6E7F0BC02F10C0070471CB500BFB8
:101A40000EA20C46136801210093684600F09EF830
:101A5000206000B1012016BD80B500F0FCF8012027
:101A600002BD10B54FF47A71002400F0A5F800B95A
:101A70000124204610BD00F0C6B8000000000000A0
:101A800001461D4A531802EB8101187A4A685368CF
:101A90001847194B0246995C0020002900D0704776
:101AA00003EB820110B501249C549C184A68207AEB
:101AB0001368BDE81040184770B500F009F8AE682B
:101AC000B04770BD70B500F003F8EE68B04770BD68
:101AD0000446094D2E1905EB8404307A6568704779
:101AE00038B50346044CE51804EB8303287A5C6898
:101AF0002569A84732BD00005C9F002010B5034C4B
:101B00000348211D00F045F9207010BD749F00208E
:101B1000343001080020704701460020842918BF96
:101B2000C81C704780B500F04BFA002002BD80B59C
:101B300000F05BFC012801D1002002BD012002BDA4
:101B4000EFF30580002818BF00F0C2BA00F0BCBA5D
:101B50003EB504460D46B4F90800FFF7DDFF02A9C3
:101B6000009001912269216860682B4692B200F0D2
:101B70002FF9012801D000203EBD02983EBD80B55E
:101B800000B9012000F0EFF9002002BD012910B5D5
:101B90000DD103220021012000F05EFD040004D0DD
:101BA00000230022002100F0A4FD204610BD0846BD
:101BB000BDE8104000F081BD80B50022009208B958
:101BC000802002BD11F1010F08BF4FF0FF3200F07D
:101BD00014F859B16A46002100F068FF01280AD1C3
:101BE000009808B100F02DF8002002BD002300F09D
:101BF000A9FE0128F8D0FF2002BD01D001B10A469C
:101C0000EFF3058170471CB500F015F849B169463E
:101C100000F054FE01280CD1009840B100F011F8FA
:101C200005E0002300F065FD012818BFFF242046D1
:101C300016BDFF2016BD002200240092EFF305819F
:101C400070474FF08051DFF800211160BFF34F8FD4
:101C5000BFF36F8F704780B5EFF3058109B1822024
:101C600002BD00F067FF002002BD4168006800224D
:101C700000F0F2BC03B581B00021009102B901224D
:101C8000EFF3058149B100F042F801280BD100982B
:101C900008B1FFF7D6FF00200EBD002302A900F017
:101CA00028FD0128F7D0FF200EBDF8B5054684B009
:101CB000084600230290019310B900F037F824E0A1
:101CC00000F02EF808BF4FF0FF3400F037F849B1AC
:101CD00003AA01A900F0EAFE012806BF1022009223
:101CE000009706E000F018F8012807D110210091B4
:101CF00009E0039838B1FFF7A4FF04E0002C0CBF03
:101D000000204020009000F021F805B0F0BD002335
:101D10006A4602A900F084BD224601A900F012BE65
:101D20000024002712F1010F0397704780216A46B3
:101D3000009192E8580085E85800704701D002B140
:101D40001446EFF30581704704ED00E0684690E823
:101D50000E0085E80E007047F0B51C4D04466B7A06
:101D60000120ABB96E7A0020A8556B7A05EB83078A
:101D70002F237C60687A28440272687A421C3030D3
:101D80006A72002208703A20487000208B70CA7076
:101D9000F0BD0022E0E70D4B0246597A01200029F0
:101DA00000D1704710B51278303AD2B203EB8204FA
:101DB000616841B100201A44606000241472597AAD
:101DC000481E5872002010BD0021E4E75C9F0020EF
:101DD0002DE9F8430646174684B088469946B80070
:101DE00000F050FF05001AD0582000F04BFF04000F
:101DF00012D00D990C982563002203924B46019155
:101E00003A46009041460294304600F00DF82046D4
:101E100000F04EF8012004E0284600F0C0FF4FF02B
:101E2000FF3005B0BDE8F0832DE9F0470A9D8146FB
:101E30000C4616469846A522286BB10001F002F820
:101E40002A6B02EB8601081FC0084FEAC00A002176
:101E5000625C6B1883F83420605C10B1491C102957
:101E6000F6D3089E002085F84300099C05F144073D
:101E7000062E88BF0626EE623E60C6F10706786031
:101E8000281D01F009F805F1180001F005F82D6191
:101E90000020AE6142466D624946B860F860387411
:101EA000504601F035F8286004B12560BDE8F087A0
:101EB0002DE9F04100F052F8E86C1426DFF8708646
:101EC000401CE864A86A28BBAC62E96C012929D1EE
:101ED000002706FB07F07F1C404400F0D0FF072FCF
:101EE000F7D305F1740005F1880700F0C8FF384604
:101EF00000F0C5FF284600F0C2FF05F1140000F015
:101F0000BEFF05F1380000F0BAFF05F17401E96287
:101F10002F6307E0A86D28B9E16AA86AC26A9142F6
:101F200028BFAC62A86E0122401CA866E06A696DF9
:101F30008240464311436965211D08EB060000F00D
:101F4000AEFF01F05FF8A86D30B1A96AE26AC86A15
:101F5000904201D200F02AF8BDE8F0810446DFF893
:101F6000F45501F032B880B578B1DFF8F825116F7B
:101F700011B100F0DFFAFEE7116F491C1167002173
:101F800000F0F2FA00F04EF808B900F001F801BDD7
:101F90004FF08050DFF8C0150860BFF34F8FBFF3DC
:101FA0006F8F704704F1180000F09FBF4FF0805111
:101FB000DFF8A4351960BFF34F8FBFF36F8F704701
:101FC0007CB5DFF8A045002604F19C05009601953C
:101FD000002380220FF200610FF27930FFF7F8FE44
:101FE000502101280FD172B681F3118800F0A6FAB2
:101FF0004FF0FF300121E066A1652665BDE8734022
:1020000000F0AABF73BD10F1010FFBD172B681F3CE
:10201000118800F093FAFEE7DFF84805016F491CCC
:1020200001677047F8B5DFF83C650024306F002584
:1020300030B972B6502181F3118800F07FFAFEE7C3
:1020400000F0C3FF306F401E3067316F002937D179
:10205000F06CD8B934E0F1681427CC68FFF7A2FF20
:1020600000F07CFAE06A716D0122DFF8643582408D
:10207000784311437165211D184400F010FFE06A98
:10208000B16ACA6A904224BF0123336630680028CF
:10209000E1D10CB100F09AF9F46D3CB100F01FF8F9
:1020A00008B101203066641EF8D1F565306E38B194
:1020B0004FF08051DFF8A02401251160FFF76DFF7C
:1020C00000F0A0FF2846F2BDDFF89804006D7047CD
:1020D00080B500F0BFFFDFF88C04006D02BD2DE974
:1020E000F843DFF880740026386F002850D13C6D2B
:1020F000641C3C6512D1F96A086830B172B650228E
:1021000082F3118800F01AFAFEE7F86A396BF96277
:102110003863786E401C786600F058F9F86E4FF01E
:102120001408DFF8AC94844225D31AE0281D00F08F
:10213000DCFEA86A18B105F1180000F0D6FEE86AC6
:10214000796D0122824008FB00F011437965291D59
:10215000484400F0A4FEE86AB96ACA6A904228BFFF
:102160000126F96A086880B1FA6AD068C5686868AB
:102170008442DBD2F866B86AC16A08FB01F059F8FC
:102180000020022A07D3012605E04FF0FF30F1E7D7
:10219000F96D491CF965386E00B10126C3E138B507
:1021A00004000D4604BFDFF8BC03846A00F00DFF95
:1021B000E564BDE8314000F025BF10B5DFF8944379
:1021C000206F10B10121216610BD2066A16A086B45
:1021D0000268B2F1A53F04BF4168B1F1A53F07D144
:1021E0008268B2F1A53F04BFC068B0F1A53F05D039
:1021F000A06A00F13401A06A00F0E1FF626D1421D1
:10220000B2FA82F2C2F11F024A43DFF8C4138858BF
:1022100030B972B6502282F3118800F08FF9FEE7D0
:10222000881800F10802416849684160914204BF82
:10223000496841604068C168A16210BD10B50C4694
:1022400010B900F077F9FEE7DFF80823936A03F18D
:10225000180100F031FE20460121BDE8104083E165
:1022600070B5C068C46834B972B6502181F3118862
:1022700000F064F9FEE704F11800DFF8E85200F01E
:1022800034FE296F61B900F016F8E26A696D012326
:1022900014209340424319436965211DB01802E0A0
:1022A00004F11801284600F0FAFD00F04DF900D2C3
:1022B00006E0002070BD201DDFF8146300F015BE9D
:1022C0000120286670BD48B972B6502080F311888D
:1022D000BFF34F8FBFF36F8F62B6FEE7DFF8841254
:1022E0004A6E0260096D4160704770B504460D4644
:1022F00050201CB972B600F01FF9FEE71DB972B686
:1023000000F01AF9FEE700F060FEDFF85802016DF8
:102310002A6812F1010F0FD06368406E2668B04240
:1023200001D099420AD2C81A904207D2511A5918BC
:1023300029602046FFF7C7FF002400E0012400F0D9
:1023400061FE204670BD0120DFF818120866704754
:102350000000000070B5DFF8D841DFF808521BE03C
:10236000286F401C286769694E1EB641F60FFFF7BB
:1023700059FE8EB900F029FE286AC668301D00F0AB
:10238000B4FDE86C401EE864696B491E696300F0A7
:1023900039FE304600F010F8686B0028E0D1216863
:1023A000012906D94FF08050DFF8AC211060FFF70B
:1023B000F4FD00F006FFEFE710B50446206B00F0D7
:1023C000EEFC2046BDE8104000F0E9BCDFF89411B7
:1023D000CA6A106818B94FF0FF33CB667047C86AF5
:1023E000C268D3685868C8667047DFF87811886D8E
:1023F00008B901207047086F08B902207047002013
:1024000070472DE9F041040036D0DFF84851E06A0A
:10241000A96ACA6A90422FD2A069002804D4A86A87
:10242000C16AC1F10701A161E26A14276169DFF89D
:10243000A0817A43424491421BD1201D012600F025
:1024400054FD002801BFE16A794358F801000028D3
:1024500000F058F8A96AC86A211DE0626A6D474316
:10246000864016436E6508EB0700BDE8F04100F0BA
:1024700016BDA86AC16AE162BDE8F0812DE9F041AC
:1024800004460021002C3AD0324D5022A86A8442E2
:1024900005D072B682F3118800F050F8FEE7A06C08
:1024A00028B972B682F3118800F048F8FEE7E26AB4
:1024B000401E636CA0649A4221D000BB201D0126FF
:1024C0001427DFF80C8100F010FD002801BFE16A3D
:1024D000794358F80100002800F014F8606CE062BD
:1024E000C0F10700A061E06A696D474386400E4372
:1024F000211D6E6508EB070000F0D1FC01210846A4
:10250000BDE8F08105D16A6DE06A06FA00F0824309
:102510006A6570471349886A18B1886A826C521CD0
:102520008264886A70473046BDE8F283000000008C
:10253000D098002072B6502080F31188BFF34F8FDF
:10254000BFF36F8F62B67047A86AE26AC16A9142B0
:10255000704700003098002004ED00E0201D00F0DE
:10256000C4BC000030980020F8B51A4D0C462F6D01
:10257000A96A0646081D00F0B8FC30B9A86A696D62
:102580000122C06A82409143696516F1010F08D1AA
:102590003CB1A86A011D05F13800BDE8F44000F027
:1025A0007EBCA86AF619BE424660A86A05D2011D23
:1025B000286BBDE8F44000F07FBC011DE86A00F024
:1025C0007BFCE86E864238BFEE66F1BD000000007D
:1025D000D09800203098002049444C45000000006D
:1025E00038B504000D4602D100F05DF8FEE700F0BA
:1025F000ECFCE26B206C216842438818002160608B
:10260000A163E16B206C2268A2602368491E4143EC
:1026100058184FF0FF31E06004F144000170417040
:1026200075B92069A0B104F11000FFF719FE78B167
:102630004FF08050DFF84416086000F029FA07E0F8
:1026400004F1100000F01BFC04F1240000F017FC62
:1026500000F0D8FC012032BDF8B506000D46174643
:1026600002D100F020F8FEE7002D0EBF482005FB48
:1026700006F0483000F006FB040007D000943B460B
:1026800004F148022946304600F002F82046F2BD27
:1026900082B0029B01B91A461A60D86318461964C1
:1026A000012102B09CE772B6502080F31188BFF37D
:1026B0004F8FBFF36F8F62B6704710B50C46502135
:1026C00010B900F00DF8FEE7A04202D200F008F8C1
:1026D000FEE702220021FFF7BFFF00B1846310BDB7
:1026E00072B681F31188BFF34F8FBFF36F8F62B65D
:1026F00070472DE9F64782B004461E46502714B9AC
:1027000000F0D3F8FEE75FEA010A01D1206C70B94E
:10271000022E02D1E06B01280CD1FFF766FE0028E3
:1027200061D1039800285ED000F0BFF8FEE700F00A
:10273000BCF8FEE700F0B9F8FEE7039907F11000D6
:10274000FFF77CFD384600F049FAFFF76BFC08B94B
:1027500000F09CF900F039FCB86BF96B884249D362
:10276000022E47D0039800283AD01CB968460124AD
:10277000FFF7A9FD00F046FCFFF74EFC00F025FC3A
:1027800007F1440090F9001011F1010F04BF00227D
:10279000027090F9011011F1010F04BF0022427084
:1027A00000F030FC03A96846FFF79FFD88BB00F0EE
:1027B0000CFCB86BF96B884214BF0025012500F0B2
:1027C00021FC002DB9D1384600F008FAFFF72AFCA9
:1027D000C0E708B100F05AF900F014FC01201EE037
:1027E00000F010FC1AE027460024DFF890844FF038
:1027F0008059AFE732465146384600F0A8F9796A69
:102800000029E6D007F12400FFF72AFD0028E1D1D6
:10281000E2E7384600F0E2F9FFF704FC002032E17D
:102820002DE9F8430446884615461E46502714B93C
:1028300000F03BF8FEE7B8F1000F01D1206C20BB9F
:10284000022E02D1E06B012822D100F003FCEFF34D
:10285000118900F06BF801D3022E21D194F9457053
:1028600032464146204600F072F917F1010F12D1AD
:10287000606A98B104F12400FFF7F2FC002818BF49
:10288000002D0BD00120286008E000F00EF8FEE7D4
:1028900000F00BF8FEE77F1C84F84570012000E093
:1028A000002089F31188BDE8F28372B687F311889E
:1028B000BFF34F8FBFF36F8F62B67047F8B5044612
:1028C0000D46502714B9FFF7F0FFFEE7206C10B15A
:1028D000FFF7EBFFFEE7216809B96068D0B900F0A7
:1028E000B9FBEFF3118600F021F81BD294F94510E3
:1028F000401CA06311F1010F0FD1606A80B104F197
:102900002400FFF7ADFC002818BF002D08D00120DF
:10291000286005E0FFF7C9FFFEE7491C84F8451071
:10292000012000E0002086F31188F2BD72B687F323
:102930001188BFF34F8FBFF36F8F62B6A06BE16B4F
:10294000884270472DE9F64782B006469946002432
:10295000502516B900F0A1F8FEE75FEA010801D1A1
:10296000306C38B9FFF741FD60B9039850B100F001
:1029700094F8FEE700F091F8FEE7304600F02EF9FB
:10298000FFF750FB00F021FBB06BDFF8F0524FF087
:10299000805720B9039858BB00F034FB72E004461E
:1029A000D6F80CA04146304600F005F9B9F1000F09
:1029B0000ED1641EB463306810B9FFF7ABFD7060D0
:1029C000306988B106F11000FFF74AFC48B90BE006
:1029D000706AC6F80CA038B106F12400FFF740FC7D
:1029E00010B12F6000F054F800F00CFB01204AE019
:1029F0001CB968460124FFF766FC00F003FBFFF7F3
:102A00000BFB00F0E2FA06F1440090F9001011F11E
:102A1000010F04BF0022027090F9011011F1010FA3
:102A200004BF0022427000F0EDFA03A96846FFF7E8
:102A30005CFC002830461CD100F002F900289CD034
:102A4000306830B900F0C1FA7068FFF7DAFC00F0C6
:102A5000D9FA039906F12400FFF7F0FB304600F0A5
:102A6000BDF8FFF7DFFA00288CD12F6000F010F8D6
:102A700088E700F0B3F8FFF7D5FA304600F0E0F849
:102A80000028F5D0002004B0BDE8F087C8F8009019
:102A9000BFF34F8FBFF36F8F704772B685F3118806
:102AA000BFF34F8FBFF36F8F62B670472DE9F843C6
:102AB00004460F461546502614B900F032F8FEE7DA
:102AC0000FB9206C60B900F0C5FAEFF3118800F07F
:102AD00028F8A66B3EB9002088F31188BDE8F28380
:102AE00000F01FF8FEE794F9449039462046761E20
:102AF00000F061F8A66319F1010F0CD1206970B1E3
:102B000004F11000FFF7ACFB002818BF002D06D021
:102B10000120286003E009F1010084F8440001204D
:102B2000DAE772B686F31188BFF34F8FBFF36F8F6A
:102B300062B6704710B5040002D1FFF7B4FDFEE79E
:102B400000F089F82046BDE8104000F028B9F8B53B
:102B500006461546B46B326C002742B9316831BB6A
:102B60007068FFF78BFC0021074671601FE065B9B4
:102B7000B06800F033FB7268B068316C0844904272
:102B8000B06014D33068B06011E0F06800F026FB4C
:102B9000306CF16840420144F1603268914202D2E7
:102BA00073681844F060022D01D104B1641E641CE6
:102BB0003846B463F2BD38B5026C0B466AB144685E
:102BC000C1681144C160A14224BF0568C560C168E5
:102BD0001846BDE8384000F001BB31BDF8B50546E8
:102BE00005F1440400F0F1F994F9016070B2012894
:102BF00015DB686A98B105F12400FFF731FB08B1D5
:102C0000FFF7A1FB761EF1E72869A0B105F11000DE
:102C1000FFF726FB08B1FFF796FB7F1E08E04FF099
:102C2000FF36667000F0EEF900F0CFF994F900700D
:102C300078B20128E8DA2670BDE8F14000F0E2B988
:102C400010B5044600F0C1F9A06B441EA44100F089
:102C5000D9F9E00F10BD10B50021094A02EBC103FC
:102C60005C68844203D0491C0829F7D310BD0020BA
:102C700042F83100586010BD0000000004ED00E093
:102C80005C9D00202DE9F04104466D4EFFF7C4F92C
:102C9000B068002508BB06F1180313F0070F06F112
:102CA00018014FF400400A4605D0CA1DD208D200D0
:102CB000C2F50040081880180838C008C00032600B
:102CC000811A7560B06045600560516010605068A1
:102CD0003061F0604FF00040706171694FF0500852
:102CE0000C4232D18CB3083414F0070F1FBF04F12B
:102CF000080004F00704041B14F0070F02D000F0D2
:102D000045F8FEE70CB3F068A0421ED331463768A1
:102D10007A68A24227D2386800281CBF3946074685
:102D2000F6D120E0381D025108467C6000F063F8BF
:102D300032697968F068401A9042F06038BF3061BB
:102D400070690143796000213960FFF76BF90DB9B3
:102D500000F036FA15F0070002D000F017F8FEE791
:102D60002846BDE8F081B0688742EED00A6838682E
:102D7000086002F108057A68121B112AD8D33919A4
:102D800011F00700CED000F001F8FEE772B688F32C
:102D90001188BFF34F8FBFF36F8F62B67047002863
:102DA00000D1704738B5A0F10804254D61686A6903
:102DB0005023114202D100F015F8FEE7206810B14F
:102DC00000F010F8FEE791436160FFF725F9E9682C
:102DD000606841182046E96000F00DF8BDE8314018
:102DE000FFF720B972B683F31188BFF34F8FBFF39B
:102DF0006F8F62B67047124930B50A4600E01A4636
:102E000013688342FBD35368D418844203D14068CB
:102E1000C3181046536043681468C518A54208D10A
:102E200089688C4204D06168CB184360246800E054
:102E30000C468242046018BF106030BD00000000E4
:102E4000C40B002062F30F2262F31F4200B500BFE3
:102E5000130096469446103928BFA0E80C50FAD8C3
:102E60005FEA417C28BF0CC048BF40F8042BC9076B
:102E700028BF20F8022B48BF00F8012B00BD4FF0FF
:102E8000FF3200F10801826000F108034160002276
:102E9000C36001610260704700210161704710B595
:102EA00042684A6093688B609468616091600861D1
:102EB0000168491C016010BD30B50A6812F1010FAC
:102EC00008BF036907D000F1080300E023465C68EF
:102ED0002568AA42FAD25A684A6091608B605960AC
:102EE00008610168491C016030BD10B54368016983
:102EF00082689A608268446854604B68834204BF69
:102F000082684A60002303610868401E086010BDA3
:102F10004908490010B5A0F120034FF08074996171
:102F20000FF215011A606FF00202DC61596140F87E
:102F3000242D203810BD0000514950204A6812F15C
:102F4000010F72B680F31188BFF34F8FBFF36F8FFD
:102F500062B600D0FEE7FEE71CB54A49FF230A78B7
:102F600001920B700C788DF800409DF80000444CE5
:102F700000F050002070072005E09DF80020401E62
:102F800052008DF800209DF800301A06F5D400029A
:102F900000F4E060A060019808703B48016841F4CB
:102FA00070010160026842F07042026000F082F835
:102FB0000020606000F0CCF93448016841F04041E5
:102FC000016000F0B9F9002016BD72B6502080F300
:102FD0001188BFF34F8FBFF36F8F62B628494A68DD
:102FE000521C012A4A600CD129490A68130608D0EC
:102FF00072B680F31188BFF34F8FBFF36F8F62B645
:10300000FEE770471E49486848B972B6502080F301
:103010001188BFF34F8FBFF36F8F62B6FEE7401E7C
:10302000486008BF80F31188704780B572B65020A1
:1030300080F31188BFF34F8FBFF36F8F62B6FFF736
:103040004EF818B14FF0805011490860002282F309
:10305000118801BD10B5EFF3058050211028084AF2
:1030600005D30C4B185C1478A04200F017F8906858
:10307000094A136803F4E063984200F00FF810BDAA
:10308000F40A002000E400E020ED00E034EF00E06E
:1030900004ED00E0F0E300E00CED00E008D272B6D1
:1030A00081F31188BFF34F8FBFF36F8F62B6FEE7D6
:1030B0007047000010B506494FF47A730A68054856
:1030C0000724B2FBF3F35B1E4360046010BD00BF36
:1030D000200B002010E000E010B5032200210120A9
:1030E0003A4CFFF7B9FA206020B1002300220021FA
:1030F000FFF7FFFA002201210120FFF7ADFA60601F
:1031000010BD3248002300684FF0FF320AE02F481C
:103110000023006800220021FFF7EBBA2B480023B0
:10312000006800220021FFF70DBC80B50020274A6F
:10313000009010686946FFF7C1FB009838B14FF066
:103140008051234A1160BFF34F8FBFF36F8F01BDD2
:103150001E494868002800D170471CB50024002390
:1031600000946A460831FFF75BFB009939B14FF0D4
:103170008050174A1060BFF34F8FBFF36F8F13BD9E
:1031800010B5124C00236068002204F10801FFF71B
:10319000D9FB04F10801606800234FF0FF32BDE85D
:1031A0001040FFF7CFBB80B50A4A0028126814BF51
:1031B00001210021104600F033FB012002BDFEE793
:1031C000FEE705490020FEF7EABF0000E80A0020FC
:1031D00004ED00E0589F0020A731000862B38B0780
:1031E00008D0521E11F8013B00F8013B00F024808A
:1031F0008B07F6D1830740F0208000BF103A07D339
:1032000030B4B1E83810103AA0E83810F9D230BC28
:10321000530724BFB1E80810A0E8081044BF51F8D4
:10322000043B40F8043BD20724BF31F8022B20F8BE
:10323000022B44BF0B7803707047121F17D35B003B
:1032400009D151F8043B20F8023B1B0C121F20F857
:10325000023BF6D20BE051F8043B00F8013B1B0A9D
:1032600020F8023B1B0C121F00F8013BF3D238BFC1
:10327000121D521E24BF11F8013B00F8013BF8D883
:10328000704738B5044604F12C052878B8B1B5F973
:103290000C00B5F90E1088420FD1686840B1016882
:1032A000CA68904720B168682146026893689847C9
:1032B00069890020A881E98131BD401CA88131BD08
:1032C000EFF30980BFF36F8F254B1A681EF0100FC4
:1032D00008BF20ED108A20E9F04F106008B44FF0CD
:1032E000500072B680F31188BFF34F8FBFF36F8F1A
:1032F00062B6FEF762FF4FF0000080F3118808BC51
:1033000019680868B0E8F04F1EF0100F08BFB0EC65
:10331000108A80F30988BFF36F8F7047104B1968CC
:103320000868B0E8F04F80F30988BFF36F8F4FF063
:10333000000080F3118870470A480068006880F335
:10334000088862B661B6BFF34F8FBFF36F8F00DF9F
:10335000DFF81400016841F470010160704700005B
:103360005898002008ED00E088ED00E010B5044614
:10337000FFF7B2FE60680168CA689047E0680268BB
:1033800091688847216820460B6EBDE810401847B9
:1033900010B504462168CA6E904722682046536ED5
:1033A0009847FFF7EDFE21682046CA6D9047F8E781
:1033B000F0B583B004462168D1F8882090470028F2
:1033C00000F0A180012004F1480500F042FAA87B3A
:1033D00004F14606E8730020A8737070687F30B16E
:1033E00021682046D1F89C20904700226A773078E7
:1033F0006168DFF85063401E8041C00F48720120B1
:10340000307000F06BFA02680121136B9847E87B7B
:1034100008B90121E97300F061FA01684A6990472F
:103420002868026811698847287CE97B491EE9738E
:1034300000281CBFC9B20029EDD17078401C707003
:1034400095F90C1040B2884216DB002001AA70707A
:10345000E06802A90368DE68B04738B12368019AC2
:1034600002992046D3F89460B04705E021682046D1
:1034700001F194025368984700208DF800006069BC
:1034800050B102686946D368984728B128689DF80A
:1034900000100268D368984704F1180000F028FD76
:1034A000287D50B3206901680A6990470646A869DB
:1034B00000B9AE61A969DFF89022711A91421CD35C
:1034C0002069DFF88872026891698847A969711AD2
:1034D000A1FB07739B09B0FBF3F00128B8BF642080
:1034E00004DB6428ACBF0020C0F16400687320696D
:1034F00000210268D3699847AE6100F0EFF90268D5
:103500000021136B984721682046D1F88C309847EA
:10351000012000F09FF90020DFF82812087003B0A6
:10352000F0BD00BF012100F8471F81747047426859
:1035300001215172406801680A69104740680168BA
:103540008A681047824A10B51178044639B9606814
:1035500000F06BFE18B16168487A0028FBD0FFF7D5
:10356000D0FD2046BDE8104000F06CBEFFF7CFBD97
:1035700008467047F0B587B006460F9814468DF898
:103580001800002201911D46FF287148059201890B
:103590000E9A0D9B14BF4FF0040E4FF0010E0C9FBE
:1035A000CDF800E0ADF80C703046ADF80E30ADF857
:1035B0001020ADF8121000F045FE03462A462146C1
:1035C000304600F09EF802905AE02DE9F04387B0B3
:1035D000044690469946DDF838C00F9B109A119F1B
:1035E0001298BDF94C500026059600958DF81800EC
:1035F00020460191ADF80CC0ADF80E30ADF81020AA
:1036000000F020FE03464A464146204600F079F885
:1036100002904F4801890597ADF81210606869461D
:1036200002685368984707B0BDE8F083F0B587B0EB
:1036300006460F98144600221D4605920E9AFF2852
:103640008DF818000D9B0C9F0191304614BF4FF070
:10365000400E4FF0200ECDF800E0ADF80C70ADF844
:103660000E30ADF8102000F0EDFD03462A4621464D
:10367000304600F046F8029035480189ADF8121046
:103680007068694602685368984707B0F0BD2DE935
:10369000F04788B00746129C002005908846914666
:1036A0009A46FF2C119D109E14BF08200220009006
:1036B00000200190384600F0C5FD03461FFA8AF24B
:1036C0001FFA89F1384600F01CF8214902900A8956
:1036D0000020ADF80C606946ADF80E50ADF8100052
:1036E000ADF81220CDF814808DF818407868026883
:1036F0005368984708B0BDE8F0878164183000F03F
:10370000F5BBF8B5124F0C46F86815461E468068A2
:1037100001680A6A90471028388905FB004402D1E5
:1037200006EB4400F2BD04EB44043019F2BD084A34
:10373000117829B190F85A00401E8041C00F70479F
:1037400001207047A29F002001E1F5053E0AD7A3A2
:103750004C9F002010B50446606801688A68904755
:1037600004F15901087808B101224A7010BD38B53A
:10377000044604F15905687880B1022000F06BF826
:10378000002120466970297000F05CFD2268014626
:103790002046D2F89030BDE83440184731BD10B50E
:1037A00084B00446019101A8029200F08DFD02A9A7
:1037B00001A800F0E8FD94F85B00029B00289BB292
:1037C0000CD001990093E06C8BB2216D8AB281B26A
:1037D00004F1180000F099FB70B109E00198002194
:1037E00082B204F1180000F0D6FB012184F85B10CE
:1037F0000198E0640298206504B010BD10B504463D
:1038000094F85B0058B1216DE26C04F118008BB2A2
:10381000012192B200F0BFFB002184F85B1010BDC3
:1038200010B582B0044631B1032000F012F82069CF
:1038300068B1012105E0032000F00CF8206930B1E7
:1038400000210268536902B0BDE81040184713BD5B
:10385000704770477047704700BF38B50446DFF8BF
:1038600064062060DFF8600620600020A4F8840071
:10387000DFF8585608230822294604F1A80000F072
:10388000C9FD00210823A4F8E8100822294604F104
:10389000EA0000F0BFFD04F5957000210180DFF81B
:1038A00030568170C170DFF82C16DFF82C0600F05E
:1038B000C5FD10B10020288007E04FF48060022190
:1038C00028800220A96000F032FE002120466960B5
:1038D000A960E96000F0BDF9204632BDDFF8F005CF
:1038E00040687047DFF8E805806810B102689369A6
:1038F0001847704770471CB5DFF8E025002100919C
:10390000DFF8DC35B2F90040595EADF80640ADF89D
:10391000041003686946DA6A904713BD30B505465E
:103920000C46DFF8B805DFF8B81585B0B0F900002F
:10393000B1F90010002200920822ADF804102146CF
:10394000ADF8060002A8FFF749FC694602A801F09D
:10395000DFF8204602A90822FFF740FCDFF87005D7
:103960008068D8B195F82C1169B1684621460822C3
:10397000FFF734FCDDE9002311461A46284600F023
:103980000FF805B030BD0268214693689847DFF80C
:1039900054052146006803685A69904705B030BD58
:1039A000F6B587B00546BDF9201000291CBFBDF94A
:1039B0002200002873D0B5F8E84005F1A806002CD5
:1039C00054D0641E52D40B27A1B2684606EBC10145
:1039D0000822FFF703FC07A9684601F0DCF800287D
:1039E0005DD1694607A801F0D6F828B1A2B23146E8
:1039F00002A801F0F2F837E007A9684601F015F9CE
:103A000048B1A2B2314602A801F0E7F8694607A81A
:103A100001F02DF928E0DDE90701CDE90201694651
:103A200002A801F024F9BDF90430BDF906C0BDF9C2
:103A30000C00BDF90E1013FB0CFC10FB01F1BDF9DD
:103A4000200001EB8102BDF9221010FB01C0784378
:103A50005200824208DAA2B2314604A801F0BDF851
:103A6000DDE90201CDE90701641EADD5B5F8E80036
:103A700008280DD10722314602A801F0AEF86846A9
:103A800002A90822FFF7AAFB694607A801F0EFF890
:103A9000DDE907010A460146304601F02EF909B07A
:103AA000F0BDDFF82C04806810B10268D3691847B4
:103AB0007047DFF81C04806810B10268136A184769
:103AC00070472DE9F0410446DFF80454E86882B0FD
:103AD000E0B1017A39B9002284F82D210268916899
:103AE000BDE8FC41084794F82D0178B9A86810B1E9
:103AF00001680A699047E8680268D16888472168C8
:103B000020468B6A9847012084F82D0104F188062D
:103B10000027B0460CE098F8000030B1211DB8B283
:103B200051F8200001680A6D90477F1C08F10108D8
:103B3000B4F884309F42EEDB5B1E3BD4F718387834
:103B4000A0BB211D98B251F820000021221D12E0D7
:103B5000BEF11F0F09DADCF804800EF1010E4CF8FB
:103B6000048BB4F88480C645F2DBA8F1010CA4F8FC
:103B700084C0491C121DB4F884C0614524DAD2F80F
:103B800000C08445F5D18E4604F1040C0CEB8E0C7C
:103B9000E7E780B221188831401C4A780A70B4F8EF
:103BA000841082B28A42F4D3002070545B1E7F1EC0
:103BB000002BC4D5A86828B101684A6A02B0BDE8E4
:103BC000F0411047BDE8F3811846E8E718B4002239
:103BD00000E0521CB0F8843094B29C420FD292B2F2
:103BE000031D53F822308B42F3D1104490F8881013
:103BF000FF2913D0491C80F8881011BC704701229E
:103C000000F18804E254B0F884201346202B05DA32
:103C1000521CA0F88420001D40F8231011BC7047EE
:103C200030B4002300E05B1CB0F884409AB2A2429A
:103C30000DD200EB82049BB265688D42F3D18418EB
:103C400094F88820002AEED0501E84F8880030BCFA
:103C500070470021A0F884102021883001F07EB840
:103C60002DE9F04F804699B008F59575A97019B106
:103C70000020A8F8E8001BE1B8F8E840002C00F0AC
:103C80001381DFF84C9208230822904906A80024EB
:103C900000F0C0FBB9F80070ADF858403C4618E0A1
:103CA00008F1A801A4B201EBC40168460822FFF79D
:103CB00095FABDF858000146082909DA401C082287
:103CC000ADF8580006A800EBC1006946FFF786FA78
:103CD000641CB8F8E810A0B28842E1D310E008F103
:103CE000EA01BFB201EBC701684608227F1CFFF75B
:103CF00075FADDE900010A4601464046FFF750FE2D
:103D00002988B8B28842EAD3764FB9F8006038689B
:103D100090F84410012940F09E800024B8F8E80093
:103D20000DE0B1B208F1A80202EBC1018A1C1288B1
:103D3000CB889A1812B29442B8BF1446761C8642B9
:103D4000EFDB6648DFF898B1B0F800A04FEADA0A76
:103D5000BAF1020FB8BF4FF0010A002100910191A2
:103D600008E0884201DA002922DC38680121026873
:103D7000D36F9847BDF80220BDF8063038689A180E
:103D800012B2A242016880F29080D1F88010884778
:103D9000BDF80210BDF80620511809B20AEB010364
:103DA0009842B8BFA042DCDB884201DB844200DCE1
:103DB0002046BBF90020ADF802100023411AADF8EF
:103DC0000030B9F80060ADF80420ADF80610B8F87E
:103DD000E810B0B28842CDD208F1A801B6B201EB2A
:103DE000C60104A80822FFF7F9F9694604A800F003
:103DF0008FFE17A804A90822FFF7F0F902A817A957
:103E00000822FFF7EBF9BDF90C1000291CBFBDF922
:103E10000E00002805D0D8F8002002A94046D36A39
:103E20009847761CD3E708F1A801B6B201EBC601AA
:103E300068460822FFF7D2F9BDF9041000291CBF1B
:103E4000BDF90600002805D0D8F800206946404694
:103E5000D36A9847761CB8F8E810B0B28842E2D32B
:103E60002149087800B300222A80B9F8004016E002
:103E700006A9A4B201EBC40168460822FFF7AEF917
:103E800028880146082909DA401C0822288008F100
:103E9000EA0000EBC1006946FFF7A0F9641CBDF819
:103EA0005810A0B28842E3D302E0C9698847D7E737
:103EB00019B0BDE8F08F0648806810B10268936AB7
:103EC00018477047802C01088C2A01088FF00008E1
:103ED000340B0020CDB5E8B5C2A507F4529F0020F1
:103EE000509F0020589F00204C9F00200161704788
:103EF000817B49B10189491C018189B2082903DB11
:103F0000002141818181817370472DE9F04184B0A6
:103F100005460E46174698460A9CB5F90600B5F9BF
:103F20000410ADF80A80464AADF806100023ADF83B
:103F30000800BDF80A10BDF8060000928DF80430A4
:103F4000ADF80C40081A00B20028A98A48BF4042C8
:103F500000B2814209DBBDF80800201A00B2002837
:103F600048BF404200B2814211DA28696946A8EB95
:103F70000606E71B02685368984700206E81288177
:103F80000120AF81A5F80480EC80A87300E0002038
:103F900004B0BDE8F081F0B50D46012D83B00446B4
:103FA00016461F4618BF022D34D1B4F90A00C11CB1
:103FB000072914D3B4F90610B4F90420214B4FF0AB
:103FC000000E00938DF804E0ADF80600ADF808206F
:103FD000ADF80A1020696946026893689847B4F9F9
:103FE0000C00C11C072919D3B4F90610B4F9042038
:103FF000144B4FF0010E00938DF804E0ADF806006D
:10400000ADF80820ADF80A10206969460268936887
:10401000984703E0280004BFA680E7800A488DF88F
:10402000045000900020ADF806606946ADF80870B5
:10403000ADF80A00206902681368984703B0F0BD24
:1040400064300108783001085030010800BF3E4B51
:104050000360416000218260C16001617047C168F6
:104060000069814201D10120704700207047026938
:10407000C168511A0129BCBF80684118012901DCBF
:10408000012070470020704738B50446E368226974
:10409000D21A012ABCBFA0688218012A0ED9606812
:1040A000C3EBC305192200EB850000F05AFEE0685F
:1040B000A168401C884228BF401AE06031BD0169F8
:1040C0008268491C914228BF891A01617047416882
:1040D0000069C0EBC00201EB8200704710B50446D6
:1040E000606802681168884748B9617A39B1207AF6
:1040F00028B922682046116ABDE81040084710BD63
:1041000001680A69104770B504460D466068016889
:104110004A6890470028F9D10C4E306801688A6ED1
:104120009047FEF7FBFF606829460268936898474E
:10413000216820468B6A984730680268516EBDE856
:1041400070400847000000009C2D0108589F002087
:1041500080B5FEF7D6FFBDE80140FEF7D8BF38B501
:10416000044601202072606801688A69904705460C
:104170002868012830D0022823D004280BD0082832
:1041800014D0202818BF402826D0802818BFB0F5AA
:10419000807F21D031BD2268297E2046536B98470D
:1041A000236820462946DC6AA04731BD2268297E63
:1041B0002046536B98472368204629461C6BA0472E
:1041C00031BD216820468A6B9047226829462046E7
:1041D000136BBDE834401847216820468B6B984725
:1041E000226829462046D36ABDE83440184710B5F6
:1041F0000446606801680A68904738B9207A28B197
:10420000606801684A699047002020726068016810
:104210000A68904728B922682046136ABDE8104012
:104220001847BDE81040FEF780BF80B540680168C0
:104230000A689047FFE7401E8041C043C00F02BD9F
:104240007047704710B504460649087840B12268A7
:104250002046936A9847A16B884201D1E06B10BD5C
:10426000A06B10BD4C9F0020F0B5044601271046FE
:10427000002C059A069D079E4FF0010E44BF644234
:104280004FF0FF37002A44BF52427F42002D42FACE
:1042900001FC0EFA01F144BF6D427F42491E1140FC
:1042A000614334680CFB034391FBF5F20CFB0020E7
:1042B000C91805FB1211316091FBF5F3181805FBC5
:1042C000131131607843F0BDF0B5254D85B004463B
:1042D000A8692668676800283ED0A96800EBD072FC
:1042E0000190EB6B01EB6201EA6A039103A9029171
:1042F00020680090E9692868FFF7B6FF03A9064621
:104300000291A9690191606800902B6C2A6B296A5F
:104310006868FFF7A9FF8619A8696969019000EB31
:10432000D0726B6C01EB62016A6B039103A902917D
:1043300020680090696AE868FFF796FF074603A8BF
:104340000290A869019060680090AB6CAA6BA96AA2
:104350002869FFF789FFC7192660676005B0F0BDBF
:104360004C9C0020274B284A30B41C78B2F900201E
:10437000012C06D10D88B0F900300580501EC31AFB
:104380000B8030BC70471F4A1378012B00D0704758
:1043900070B41E4C0A88B4F90050B0F900306E1E9B
:1043A000B61A06800B8070BC7047000070B50446DA
:1043B000154E1748B6F90030B0F9005084B000220D
:1043C0000021009501A800F0D2FC0146204600F033
:1043D00002F804B070BD0B4A1378012B00D070476F
:1043E00010B4B0F9042004881419631E44880480B2
:1043F00089884C1EE31A4380C388C280838010BC26
:10440000704700004E9F0020509F0020569F0020C4
:10441000529F00202DE9F04106460F4635463800F0
:1044200018BF002D90461C4605D024B13046B84731
:10443000641E4644FAD12846BDE8F081024616487B
:1044400070B40468154D0023640864000460286893
:10445000002801BF124E3468C4F30B04B4F58A6F10
:104460000BD1104C0120A060A0680028FCD1226074
:1044700022688A420CD101230AE00B4C0125A56079
:10448000A0680028FCD1226022688A4208BF01236C
:10449000184670BC704700BF002000E0002004E018
:1044A0000010005C004C02580030024000BF10B504
:1044B000044682B0DFF8A0052060201D00F06EFCED
:1044C0000120002184F83800DFF890052163DFF82F
:1044D0009025A186E186415EB2F90030002200916C
:1044E0000021201D00F074FC204616BD30B585B0BB
:1044F00004460D46684604F108010822FEF76EFEE8
:104500002946684600F004FBDDE90023CDE90223DB
:1045100094F8380002A9002804D0204600F01AF8C8
:1045200005B030BD201D00F073FC05B030BD1CB5DA
:10453000DFF8282500210091DFF82435B2F900408A
:10454000595EADF80640ADF80410036869469A68F4
:10455000904713BD38B50D460021044600916A46C8
:104560002946201D00F0D0FC009820B102462946C3
:10457000204600F001F831BD2DE9F04F87B00E461E
:10458000B6F9041080461446002900F09980B6F967
:104590000600002801E0E469002C40F09280F5E07C
:1045A000B6F902204A4510DAA9EB0200B6F9041068
:1045B000ADF80030ADF80220ADF804106946ADF852
:1045C0000600E2694046FFF7D7FFB6F90000A842AF
:1045D0000DDA291AADF80000ADF802904046ADF8AA
:1045E00004106946ADF806B0E269FFF7C5FF3188EF
:1045F000B0884118781902B20BB29A420EDA4D1BFC
:10460000ED1BADF800006946ADF802904046ADF8EC
:104610000450ADF806B0E269FFF7AEFF7188F0888C
:1046200041180BEB090002B20BB29A4214DAB6F948
:104630000030A1EB0909B6F90420A9EB0B09ADF88C
:1046400000306946ADF802004046ADF80420ADF8F0
:104650000690E269FFF790FF204600F095FC824645
:1046600002A831460822FEF7B9FD514602A800F023
:104670004FFA04A802A90822FEF7B0FD684604A973
:104680000822FEF7ABFDBDF9041000291CBFBDF9DF
:104690000600002814D0204600F095FCBDF800105C
:1046A000081AADF80000204600F0A1FCBDF8021089
:1046B000081A6946ADF802002268204693689847B8
:1046C00064E0204600F060FC314600F0AEFA0028BD
:1046D0003FF461AFE0690028BED02268214602A8FD
:1046E000D3689847204600F082FC8246204600F0BE
:1046F0006AFCBDF808100818BDF80C10ADF80000F1
:10470000BDF80A00ADF8041031468244BDF80E0031
:10471000ADF802A0ADF80600684600F0F9F902A86D
:1047200069460822FEF75AFD204600F02DFC82461D
:10473000684602A90822FEF751FD5146684600F07E
:10474000E7F9BDF90050B6F90030BDF90290BDF9A6
:104750000470BDF906B09D4204BFB6F90210894548
:1047600008D1B6F904108F4204BFB6F906108B4584
:104770003FF472AF002F18BFBBF1000F7FF410AFF2
:10478000E26931464046FFF7F7FE65E707B0BDE84E
:10479000F08F2DE9F04F89B004460F46216B387930
:1047A00011B1002800F0D980002840F0AE80AD485B
:1047B0000021026892F84500A186E186411E032986
:1047C000C0F29A8000224FF0FF392263A64A81FB93
:1047D000023202EBD271A14AA14B0429A8BF0321E6
:1047E000012500260129925F9B5FC0F2B6808046BA
:1047F00008900591059898FBF0FE681E082874DC67
:104800000FF2C421C5F1090001EBC501801C00EBCA
:10481000D070039402970839ADF80620ADF8043043
:104820000F46CDF810E044100020049A009039683B
:10483000786811FB02FA029910FB02FB0A89C98809
:1048400051440FFA81FCBCF1000F5A4444D4BDF925
:1048500004C00BB263453FDA13B2002B3CD4BDF960
:10486000063010B2984237DADDF80CC06B4612B24F
:1048700009B20CF1040000F00BFB0099002918BFED
:10488000B14229D006A800F024FC0298BDF91C1002
:10489000B0F90620BDF91800101A029A01EBD17187
:1048A000A0EB6100BDF91E10B2F90830BDF91A2065
:1048B0009A1A01EBD171A2EB6102524300FB002076
:1048C000484509D20399009E81460E63039AA2F8D7
:1048D00034A00398A0F836B01037641EA4D1039C0E
:1048E000029FBDF90620BDF9043008986D1C804474
:1048F0000598A84209DB7DE7B7F90820B7F906104B
:1049000004F13003201D00F0C3FA216B29B303A882
:1049100000F0DFFB3B89E08EBDF80E203979C3182B
:10492000A08E9A1AFB888DF804106946ADF808200D
:10493000C318BDF80C00181A4C4BADF80600002047
:104940000093ADF80A00206B0268536C98473879E1
:1049500018B100212163A186E18609B0BDE8F08F7E
:10496000F0B589B004460D46216B002971D0684628
:1049700000F0AFFBB4F93430EF88B4F936102A896F
:10498000BDF90060DF1938B28A18B04237DBBDF8D4
:104990000060BDF804003FB2861930B287422EDABB
:1049A000BDF9020017B2874229DBBDF8067012B2CA
:1049B0003F180FFA87FC624521DAAA89BDF900C0C9
:1049C00089186A899B181AB262450ADB1BB236B293
:1049D000B34206DA0AB2824203DB09B23FB2B942FD
:1049E0000DDB22480221002200908DF80410694658
:1049F000ADF806200292206B0268536C9847216B39
:104A000002A800F066FBB4F93630A889BDF90A1097
:104A1000B4F934201818401A00B201906E89BDF81C
:104A200008009619361A36B2009628891B185B1AA8
:104A3000E88829791BB21218BDF80800121A12B2C0
:104A400004A800F06BFB226B014610461268D36C81
:104A5000984709B0F0BD0000CC2B0108529F002000
:104A6000509F0020589F0020565555555030010842
:104A700030B587B004460D46216BE9B101A800F0BE
:104A800028FB6A89E18EBDF806008A18121A12B254
:104A900000922B89A18EBDF80400B5F90620CB1831
:104AA00029791B1A1BB203A800F048FB226B0146B0
:104AB00010461268936C984707B030BD0A46011D36
:104AC00010461268536918470000000000000000FB
:104AD000FFFFFFFFFFFFFFFF00000000FFFFFFFFE2
:104AE00001000000FFFFFFFFFFFFFFFF00000000CD
:104AF000FFFFFFFF010000000100000000000000B8
:104B000001000000010000000000000001000000A2
:104B10002DE9F841B1F900308A88B0F90040D21887
:104B200016B2B442BFBF85882D192FB2BB4214DA2A
:104B3000B1F90260B1F806E0B0F902C0B6440FFA6C
:104B40008EFEF445BFBFC78867440FFA87F8464515
:104B500003DAA34206DA234604E00023002683801A
:104B6000002713E066452CB23FB2B8BF66460FFA85
:104B700082FC6445B8BF2A46D21A82804C88CA8813
:104B8000141924B2A742C8BF2746BF1BC78046805E
:104B90000380BDE8F18170B4B0F90030B1F9004094
:104BA0009C42A2BFB0F90250B1F90260AE4211DBE3
:104BB0008288D3188A881BB2141924B2A34209DB55
:104BC000C0884519C8882DB2861936B2B542A8BF2B
:104BD000012000DA002070BC7047F0B5044683B0B5
:104BE00000200D4600900190B5F8407090B2B84298
:104BF00014D296B2684605EBC6010822FEF7EEFA1B
:104C0000791E88B28642A5F8401007D289B205EB1A
:104C1000C60005EBC1010822FEF7E0FA204669460E
:104C20000822FEF7DBFA03B0F0BD30B4B1F9003072
:104C30008D88B0F90040ED182DB2AC42BFBF82881C
:104C4000141924B2A3420FDAB1F90220C988B0F9CD
:104C50000230891809B28B42BFBFC088C3181BB28B
:104C60009A42B8BF012000DB002030BC70472DE91C
:104C7000F043B1F90450002D1CBFB1F90640002CDF
:104C800039D0B0F90430002B1CBFB0F90620002A3F
:104C900008D0B1F90060B0F90090B145B4BFCC467E
:104CA000B44609E00A8802804A8842808A88828065
:104CB000C988C180BDE8F083B1F902E0B0F9028093
:104CC00047464B440FFA83F9A0F800C0F0457444FE
:104CD000424424B212B2C8BF7746AD192EB24E4537
:104CE0004780B8BF1D469442A5EB0C058580B8BF30
:104CF0001446E41BC480BDE8F0831CB513460A4685
:104D0000B0F840100C46082C0ADACDE90023491C03
:104D10000822A0F8401000EBC4006946FEF75EFAD6
:104D200013BD30B4002513E050F8042BD30744BF63
:104D3000A9F101039A18091F042942F8045BFAD269
:104D400013468C0744BF15809B1CC90748BF1D70C4
:104D500050F8041B0029E7D130BC70470022FEF751
:104D600075B810B50446FEF739FA204610BD10B5E7
:104D7000BDF90840018042808380C48010BD10B519
:104D80004268C36802EB6302DB0751BF83681468A3
:104D9000806823581046BDE81040184700210022C3
:104DA0008180C180018141818181C18101824182F3
:104DB00041618161C16100F124010A7001224A70E0
:104DC000024A026000224A60704700BF101F0108BB
:104DD000F8B504461E462368BDF918505F6BB84706
:104DE000314626682046B26B904723682046294604
:104DF000DC6BA047F1BD002248618A61826A12B96A
:104E000081627047024690690028FBD1916170472A
:104E100090F82520002A00D1704770B586B0866AC8
:104E2000A6B368460822FEF7D9F9DDE9004596F8F1
:104E3000250040B3CDE90245311D02A8FFF768FE09
:104E400004A802A90822FEF7C9F9684604A90822A5
:104E5000FEF7C4F9BDF9041000291CBFBDF9060016
:104E6000002810D0BDF80010B288BDF80200891AE1
:104E7000ADF80010F188401A6946ADF802003268BA
:104E8000304693689847B669002ED0D106B070BD01
:104E90002DE9F04117460E4600F124021D46117817
:104EA00001B12860546820E094F82500E0B1B4F91D
:104EB00004108E4218DB2289521812B2964213DA7D
:104EC000B4F9062097420FDB63899B181BB29F42FF
:104ED0000ADAD4F800C0BA1A711A2B4612B209B213
:104EE000DCF81C802046C047A469002CDCD1BDE85A
:104EF000F08100B583B0002100910822019169463C
:104F0000FEF76CF903B000BDF0B587B00D4690F820
:104F10002510164600291CBF846A002C32D094F854
:104F2000251061B302A829460822FEF757F9211D72
:104F300002A8FFF7EDFD04A802A90822FEF74EF92A
:104F4000684604A90822FEF749F9BDF904100029B2
:104F50001CBFBDF90600002811D0BDF80010A288C2
:104F6000BDF80200891A3246ADF80010E188401AF7
:104F70006946ADF80200236820461F6EB847A46951
:104F8000002CCCD107B0F0BD1CB50446B4F90C0020
:104F900010F1010F14D1B4F90A00B4F9081000227D
:104FA0000092ADF804106946ADF80600226820466C
:104FB000136A984704F10C0069460822FEF70EF9BF
:104FC00004F10C0016BD1CB50446B4F9201011F113
:104FD000010F09D12146684600F07BF8BDF800209A
:104FE0002284BDF802006084B4F9200016BD1CB50F
:104FF0000446B4F9221011F1010F09D12146684687
:1050000000F067F8BDF800202284BDF8020060843B
:10501000B4F9220016BD30B585B004460D46A0880F
:1050200029880822411829806988E0884118684643
:105030006980211DFEF7D2F829466846FFF768FD12
:1050400002A869460822FEF7C9F8284602A90822E4
:10505000FEF7C4F8606928B10268294613699847C9
:1050600005B030BDFEF73AFC03682946DA6A90477E
:1050700005B030BD1CB504466846211D0822FEF768
:10508000ADF80020694600902268204613699847D1
:1050900013BD38B505460C462188A88841182180E3
:1050A0006188E888411820466180291DFFF730FD9E
:1050B000B4F9041000291CBFB4F90600002807D079
:1050C000686928B102682146136ABDE83440184770
:1050D00031BD1CB504460846B0F90A10B0F90820E5
:1050E00000230093ADF80420ADF80610026869466D
:1050F000536A9847204669460822FEF76FF813BDA9
:105100000B888288D3180B804B88C288D3184B80B9
:10511000406910B10268536A1847704770B4BDF90E
:105120000C40BDF91050044E06600171C28003812D
:105130004481858170BC70476430010830B4BDF98A
:105140000840044D05600171C2800381448130BC78
:10515000704700BF783001082DE9F04F0FF2A41C12
:10516000A1B0DCE90089CDE900892A9DDFF8DC9B4C
:10517000049100248DF843500D944FF0FF3882467F
:1051800016461F460FE0B3462C461BF8011B049839
:10519000D0470028049000F0A2800D98401C641EA7
:1051A0000D90F2D176193078252808D100210022FF
:1051B0000791089209910A920B910C920DE06A46B0
:1051C0004146304600F0ACFF050001D10D98A1E04A
:1051D000D9D50125E6E741F0010116F8010F202895
:1051E000F9D023280CD02B2804D02D2805D0302826
:1051F00009D076E041F00201EFE741F00401ECE76D
:1052000041F00801E9E741F01001E6E70F9209E0FB
:105210000F98484505DA00EB800402EB4402303A6F
:105220000F92761C3278A2F130000A28F0D3307841
:105230002E2818BFCDF8388022D116F8010F2A2861
:1052400007D138683860761C50F8042B38600E920D
:1052500016E02D280CBF761C002000220E920AE0DA
:1052600040B90E9A4A4505DA02EB820403EB440387
:10527000303B0E93761C3378A3F130020A2AEFD329
:10528000ADF8401021A0317800F054FF08B116F8B5
:10529000010B8DF842009DF84200682804D1307857
:1052A00068280AD1622105E06C2804BF30786C2898
:1052B00003D171218DF84210761C12A806903A464F
:1052C00016F8013B02A9504600F064F838B912AA5A
:1052D00002A9504600F0C8F900287FF564AF4046A7
:1052E00018E02A2892D13A683A6052F8040B3A60E2
:1052F00000280F9003D540420F9041F00401761C26
:1053000095E700000000000000000000686A6C746F
:105310007A4C000021B0BDE8F08F622820D06828C8
:1053200011D06A2803D06C2827D0712825D10868AD
:10533000C01D20F007000860D0E900230830086095
:10534000194610467047002A0A680A60106803D0A0
:10535000121D0A6000B217E0121D0A6080B217E049
:10536000002A0A680A60106803D0121D0A6040B261
:105370000AE0121D0A60C0B20AE0002A0A680A6048
:10538000106803D0121D0A60C1177047121D0A6011
:10539000002170477CB50D4611461C462E69B4F1BC
:1053A000250200F04F811C3A00F08480121F022A6F
:1053B00040F280800E3A00F00981521F59D0093A1C
:1053C00078D0921E16D0521E35D0521E022A71D9A4
:1053D000121F30D0521F00F09880521E49D0521E2A
:1053E00000F0E280D21E00F0FF80921E41D0D21E5B
:1053F0003FD02DE195F83A406C2C09D06869421CE9
:105400006A610A680A6052F8043B0A60335429E171
:105410000A680A6052F8043B0A6000930022019275
:105420004FF0FF332B636A46294600F098F90028B5
:1054300040F1188103E195F83A000122FFF76DFF72
:10544000C5E90001002904D56869411C69612D2264
:105450000DE0288F810704D56869411C69612B2202
:1054600005E0C00721D56869411C696120223254DA
:105470001BE095F83A000022FFF74FFFC5E9000155
:1054800095F83800010710D5D5E90023002B08BF97
:10549000002A0AD044F02000782806D1686930211B
:1054A0003154401C421C6A613454214668693044BE
:1054B000E86087E00868C01D20F007000860D0E9B8
:1054C000002308300860C5E90023D5E90001C80FB2
:1054D00004D06869411C69612D220DE0288F810785
:1054E00004D56869411C69612B2205E0C00704D519
:1054F0006869411C69612022325468693044E8605F
:105500002146284600F036FAACE005F13A02507820
:1055100020B14FF0FF340FF6043074E010786228A9
:1055200008D0682824D06A2812D06C282ED0712880
:105530000ED02BE00A680A6052F8040B0A6020B90A
:105540004FF0FF340FF6EC205DE0E96A017089E06E
:105550000A680A6052F8040B0A6020B94FF0FF3461
:105560000FF6D0204FE0EA6AD317C0E9002379E0B4
:105570000A680A6052F8040B0A6020B94FF0FF3441
:105580000FF6B0203FE0E96A01806BE00A680A602C
:1055900052F8040B0A6020B94FF0FF340FF6942044
:1055A00031E0E96A01605DE00A680A6052F8040BC4
:1055B0000A60002120F0000221F0FF33C5E900233A
:1055C000EE607821284600F02DF94BE06C2285F83A
:1055D0003A200B680B6053F8042B0B6052BB4FF062
:1055E000FF340FF684200EE095F83A206C2AF0D0B4
:1055F0000868086050F8044B0860EC603CB94FF054
:10560000FF340FF6482000F0ADFD201A76BD2E6B5A
:10561000002E04D5204600F0C5FD044608E03246C1
:105620000021204600F0C8FD002814BF041B3446AA
:10563000AC6117E0294600F092F8002812D54FF02F
:10564000FF3076BD6869411C69612522325409E04A
:105650006969481C686125227254210002D0431CEC
:105660006B613454002076BD2DE9F0410E460546AD
:105670009046726B7069316AB46A121AB069521A34
:10568000716A121AF069521A121A96F83800141B2D
:1056900041070DD4002C0BDD2746B0682021A84718
:1056A0000028B06057D0F06A401C7F1EF062F4D131
:1056B000736942463146284600F098FC00284AD1DA
:1056C000376A002F0ADDB0683021A8470028B06093
:1056D00041D0F06A401C7F1EF062F4D1B369F268D9
:1056E0003146284600F082FCA8BB776A002F09DD0E
:1056F000B0683021A847B06068B3F06A401C7F1ED4
:10570000F062F5D1F068B169F36942183146284674
:1057100000F06CFCF8B9B76A002F09DDB0683021E1
:10572000A847B060B8B1F06A401C7F1EF062F5D1A6
:1057300096F8380041070BD5002C09DDB068202110
:10574000A847B06038B1F06A401C641EF062F5D121
:105750000020BDE8F0814FF0FF30BDE8F0812DE979
:10576000F8470D46A3B02F6B002F0646904648BF62
:105770006FF000470FF60C1400F04AFDD4E9002347
:10578000696B4018CDE90123812828BF4FF0FF3015
:1057900042D20024002F33DDD8F8001001AA684659
:1057A00000F0C0FC8146B9F1000F38D4D8F80000F1
:1057B00010B9B9F1010932D44F4521DB6869484479
:1057C00081280AD30021696303AA29463046FFF7DE
:1057D0004BFF040014D40020686103ABD5F814A07B
:1057E0004A46694603EB0A00FDF7F8FCCA44C5F8CF
:1057F00014A058F8040B002818BFA7EB0907C9D15B
:105800004CB903AA29463046FFF72EFF044614B9C7
:10581000002068616863204624B0BDE8F0874FF03F
:10582000FF34F8E72DE9FC4307466F293E6908BFBE
:10583000082405D041F02000782814BF0A24102441
:105840003C25D7E90023642918BF69299046994669
:1058500005D1002B03D5D8F1000869EB4909B9F14E
:10586000000F08BFB8F1000F1FD1386BE8B9082C42
:105870004CD197F83800010748D530203B2586F8F1
:105880003B0043E000280ED597F8380000F01400E4
:10589000102808D17B6B7969386A5B1A1B1A9A1A2F
:1058A000002AC8BF3A62BDE8F3838DF80010404675
:1058B00049462246E31700F0BDFC3032D0B26D1EDF
:1058C0003A28019504DB9DF80000A0F151018A18E7
:1058D0007255404649462246E31700F0ABFC80462D
:1058E0005FEA010908BFB8F1000F03D0F868711929
:1058F0008842DCD3082C09D197F83800010705D578
:10590000705D302802D06D1E30207055C5F13C020C
:10591000BA617119F960386B8242B3DA821A3A625D
:105920004FF6EF70398F01403987BDE8F3832DE9D9
:10593000D04306460F4614464FF00008DFF8109497
:1059400012E0E00707D542464B463046394600F0A4
:1059500001FD06460F464046494642464B4600F08A
:10596000F9FC641080468946002CEAD1304639465D
:10597000BDE8D0832DE9F84F05468A464AF0200459
:105980008EB0D5E90089612C02AE09D0286B0028C1
:1059900048BF062003D408BF672C01D1012028632B
:1059A000D5E900014A005215521C0DD10B030BD052
:1059B000AAF1610103201A29A86102D20FF2CC6179
:1059C00010E00FF2CC610DE04A005215521C0ED1CE
:1059D0000B030CD1AAF1610103201A29A86116D387
:1059E0000FF2B461E8680322FDF7F8FBC0E1CDE9EE
:1059F0000C01DDE90C2323F00043B3F5801F0DD229
:105A00000027002B08BF002A019703D111E00FF2F5
:105A10008461E7E701AA00F07BFD0AE0CD48CE49AA
:105A200000EB1350DDE90C2301900B40CB491046ED
:105A30001943C5E90001612C0DD1E86830210170DE
:105A4000821CBAF1610FEA600CBF782158214170C5
:105A50006869801C6861D5E90001CDE90C01DDE9C8
:105A60000C2333F0004104BF0028002300F04881DC
:105A7000612C40F0A080286B494600284CBF4FF0B5
:105A8000210B00F1010B404600220023DDE90C89C7
:105A900000F076FD01990BF1010738BF89F000494C
:105AA000091F002F01918DF808200DF1090040F326
:105AB0003581A94900910646404649460022002307
:105AC00000F07EFD80F029814800400D00F11C02AD
:105AD00011D0002A0FDD40F2FF739A4205DBA04986
